{"contracts/LendingSystem.sol":{"LendingSystem":{"abi":[{"anonymous":false,"inputs":[{"indexed":true,"internalType":"uint256","name":"loanId","type":"uint256"}],"name":"LoanCancelled","type":"event"},{"anonymous":false,"inputs":[{"indexed":true,"internalType":"uint256","name":"loanId","type":"uint256"}],"name":"LoanCompleted","type":"event"},{"anonymous":false,"inputs":[{"indexed":true,"internalType":"uint256","name":"loanId","type":"uint256"}],"name":"LoanDefaulted","type":"event"},{"anonymous":false,"inputs":[{"indexed":true,"internalType":"uint256","name":"loanId","type":"uint256"},{"indexed":false,"internalType":"address","name":"lender","type":"address"}],"name":"LoanFunded","type":"event"},{"anonymous":false,"inputs":[{"indexed":true,"internalType":"uint256","name":"loanId","type":"uint256"},{"indexed":false,"internalType":"address","name":"borrower","type":"address"},{"indexed":false,"internalType":"uint256","name":"amount","type":"uint256"},{"indexed":false,"internalType":"uint256","name":"interest","type":"uint256"},{"indexed":false,"internalType":"uint256","name":"duration","type":"uint256"}],"name":"LoanRequested","type":"event"},{"anonymous":false,"inputs":[{"indexed":true,"internalType":"uint256","name":"loanId","type":"uint256"},{"indexed":false,"internalType":"uint256","name":"amount","type":"uint256"},{"indexed":false,"internalType":"uint256","name":"remaining","type":"uint256"}],"name":"PaymentMade","type":"event"},{"inputs":[{"internalType":"address","name":"","type":"address"},{"internalType":"uint256","name":"","type":"uint256"}],"name":"borrowerLoans","outputs":[{"internalType":"uint256","name":"","type":"uint256"}],"stateMutability":"view","type":"function"},{"inputs":[{"internalType":"uint256","name":"_loanId","type":"uint256"}],"name":"cancelLoan","outputs":[],"stateMutability":"nonpayable","type":"function"},{"inputs":[{"internalType":"uint256","name":"_loanId","type":"uint256"}],"name":"defaultLoan","outputs":[],"stateMutability":"nonpayable","type":"function"},{"inputs":[{"internalType":"uint256","name":"_loanId","type":"uint256"}],"name":"fundLoan","outputs":[],"stateMutability":"payable","type":"function"},{"inputs":[{"internalType":"address","name":"_borrower","type":"address"}],"name":"getBorrowerLoans","outputs":[{"internalType":"uint256[]","name":"","type":"uint256[]"}],"stateMutability":"view","type":"function"},{"inputs":[{"internalType":"address","name":"_lender","type":"address"}],"name":"getLenderLoans","outputs":[{"internalType":"uint256[]","name":"","type":"uint256[]"}],"stateMutability":"view","type":"function"},{"inputs":[{"internalType":"uint256","name":"_loanId","type":"uint256"}],"name":"getLoan","outputs":[{"internalType":"address","name":"borrower","type":"address"},{"internalType":"uint256","name":"amount","type":"uint256"},{"internalType":"uint256","name":"interest","type":"uint256"},{"internalType":"uint256","name":"duration","type":"uint256"},{"internalType":"uint256","name":"collateralAmount","type":"uint256"},{"internalType":"bool","name":"isActive","type":"bool"},{"internalType":"address","name":"lender","type":"address"},{"internalType":"uint256","name":"repaidAmount","type":"uint256"},{"internalType":"uint256","name":"nextPaymentDue","type":"uint256"},{"internalType":"uint256","name":"installmentAmount","type":"uint256"},{"internalType":"uint256","name":"totalAmountDue","type":"uint256"},{"internalType":"bool","name":"isDefaulted","type":"bool"},{"internalType":"enum LendingSystem.LoanStatus","name":"status","type":"uint8"},{"internalType":"string","name":"purpose","type":"string"}],"stateMutability":"view","type":"function"},{"inputs":[{"internalType":"uint256","name":"_loanId","type":"uint256"}],"name":"getLoanPayments","outputs":[{"components":[{"internalType":"uint256","name":"amount","type":"uint256"},{"internalType":"uint256","name":"timestamp","type":"uint256"},{"internalType":"uint256","name":"remainingBalance","type":"uint256"}],"internalType":"struct LendingSystem.Payment[]","name":"","type":"tuple[]"}],"stateMutability":"view","type":"function"},{"inputs":[{"internalType":"address","name":"","type":"address"},{"internalType":"uint256","name":"","type":"uint256"}],"name":"lenderLoans","outputs":[{"internalType":"uint256","name":"","type":"uint256"}],"stateMutability":"view","type":"function"},{"inputs":[],"name":"loanCount","outputs":[{"internalType":"uint256","name":"","type":"uint256"}],"stateMutability":"view","type":"function"},{"inputs":[{"internalType":"uint256","name":"","type":"uint256"},{"internalType":"uint256","name":"","type":"uint256"}],"name":"loanPayments","outputs":[{"internalType":"uint256","name":"amount","type":"uint256"},{"internalType":"uint256","name":"timestamp","type":"uint256"},{"internalType":"uint256","name":"remainingBalance","type":"uint256"}],"stateMutability":"view","type":"function"},{"inputs":[{"internalType":"uint256","name":"","type":"uint256"}],"name":"loans","outputs":[{"internalType":"address","name":"borrower","type":"address"},{"internalType":"uint256","name":"amount","type":"uint256"},{"internalType":"uint256","name":"interest","type":"uint256"},{"internalType":"uint256","name":"duration","type":"uint256"},{"internalType":"uint256","name":"deadline","type":"uint256"},{"internalType":"string","name":"purpose","type":"string"},{"internalType":"uint256","name":"collateralAmount","type":"uint256"},{"internalType":"bool","name":"isActive","type":"bool"},{"internalType":"bool","name":"isFunded","type":"bool"},{"internalType":"address","name":"lender","type":"address"},{"internalType":"uint256","name":"repaidAmount","type":"uint256"},{"internalType":"uint256","name":"nextPaymentDue","type":"uint256"},{"internalType":"uint256","name":"installmentAmount","type":"uint256"},{"internalType":"uint256","name":"totalAmountDue","type":"uint256"},{"internalType":"bool","name":"isDefaulted","type":"bool"},{"internalType":"enum LendingSystem.LoanStatus","name":"status","type":"uint8"}],"stateMutability":"view","type":"function"},{"inputs":[{"internalType":"uint256","name":"_loanId","type":"uint256"}],"name":"makePayment","outputs":[],"stateMutability":"payable","type":"function"},{"inputs":[{"internalType":"uint256","name":"_amount","type":"uint256"},{"internalType":"uint256","name":"_interest","type":"uint256"},{"internalType":"uint256","name":"_duration","type":"uint256"},{"internalType":"string","name":"_purpose","type":"string"}],"name":"requestLoan","outputs":[{"internalType":"uint256","name":"","type":"uint256"}],"stateMutability":"payable","type":"function"}],"evm":{"bytecode":{"linkReferences":{},"object":"60808060405234610016576114cd908161001c8239f35b600080fdfe6080604052600436101561001257600080fd5b60003560e01c80633cdb72f114611155578063504006ca1461105f5780635114cb5214610d7957806367bf61c414610bb3578063846b909a146109f157806384733294146105e1578063af3d3e9814610587578063bdbfa3de1461044a578063ce4731141461033f578063ce63094d14610321578063e1ec3c6814610213578063e3ed1902146101bb578063eee8b7ff146101435763eeeb0c17146100b657600080fd5b3461013e5760208060031936011261013e576001600160a01b036100d86111ae565b1660005260038152604060002090604051908181845491828152019360005281600020916000905b82821061012757610123856101178189038261125b565b60405191829182611379565b0390f35b835486529485019460019384019390910190610100565b600080fd5b3461013e5760208060031936011261013e576001600160a01b036101656111ae565b1660005260028152604060002090604051908181845491828152019360005281600020916000905b8282106101a457610123856101178189038261125b565b83548652948501946001938401939091019061018d565b3461013e57604036600319011261013e576101d46111ae565b6001600160a01b031660009081526002602052604090208054602435919082101561013e57602091610205916111c4565b90546040519160031b1c8152f35b3461013e57602036600319011261013e5760043560005260006020526040600020600160a01b6001900380825416906001830154926002810154906003810154600482015460058301610265906112d3565b6006840154956007850154600886015492600987015494600a88015496600b89015498600c0154996040519d8e809e81526020015260408d015260608c015260808b01526102008060a08c01528a016102bd916111ff565b9760c08a015260ff8116151560e08a01528060081c60ff1615156101008a015260101c166101208801526101408701526101608601526101808501526101a084015260ff811615156101c08401526101e083019060081c60ff1690610123916111f2565b3461013e57600036600319011261013e576020600454604051908152f35b3461013e5760208060031936011261013e576004356000526001908181526040600020805467ffffffffffffffff811161043457838360405192610388828260051b018561125b565b8084528184018095600052826000206000915b8383106103f4575050505060405192818401908285525180915260408401949160005b8281106103cb5785870386f35b8351805188528281015183890152604090810151908801526060909601959281019284016103be565b9460038582999760409997995161040a8161123f565b8554815284860154838201526002860154604082015281520192019201919096949695939561039b565b634e487b7160e01b600052604160045260246000fd5b3461013e57602036600319011261013e5760043561046b6004548210611409565b80600052600060205260018060a01b0361048d8160406000205416331461144b565b816000526000602052604060002090600c82019081549160ff8360081c1660068110156105715761052c57600080856006829583956105008b9961ff0019161790556007830160ff19815416905582541691015490828215610523575bf115610517577fb71becc91961a6b43bcc5b3b630f3dce02c7fd444cf3738c4f188062b1caf5bc600080a2005b6040513d6000823e3d90fd5b506108fc6104ea565b60405162461bcd60e51b815260206004820152601d60248201527f43616e206f6e6c792063616e63656c2070656e64696e67206c6f616e730000006044820152606490fd5b634e487b7160e01b600052602160045260246000fd5b3461013e57604036600319011261013e5760243560043560005260016020526040600020805482101561013e576060916105c09161127d565b50805490600260018201549101549060405192835260208301526040820152f35b608036600319011261013e5760643567ffffffffffffffff80821161013e573660238301121561013e578160040135818111610434576040519261062f601f8301601f19166020018561125b565b818452366024838301011161013e57816000926024602093018387013784010152600435156109ac576044351561096757341561092c5760045460001981146109165760018101600455806000526000602052604060002091336bffffffffffffffffffffffff60a01b8454161783556004356001840155602435600284015560443560038401556106c3604435426113b4565b60048401558351908111610434576106de6005840154611299565b601f81116108cf575b506020601f82116001146108635781929394600092610858575b50508160011b916000199060031b1c19161760058301555b34600683015560078201805460ff19166001179055600c8201805461ff001916905561076563bbf81e0061075c6044356107576024356004356113c1565b6113c1565b046004356113b4565b9182600b82015562278d00806044350661080457604435049283156107ee57602093600a910491015533600052600282526107a48160406000206113d4565b807ff6cc19e46a340ab5888d736bfc79aef72ae92d12d7b76319d72b0abc170868e660806040513381526004358682015260243560408201526044356060820152a2604051908152f35b634e487b7160e01b600052601260045260246000fd5b60405162461bcd60e51b815260206004820152602660248201527f4475726174696f6e206d7573742062652061206d756c7469706c65206f66203360448201526530206461797360d01b6064820152608490fd5b015190508480610701565b601f198216906005850160005260206000209160005b8181106108b75750958360019596971061089e575b505050811b016005830155610719565b015160001960f88460031b161c1916905584808061088e565b9192602060018192868b015181550194019201610879565b600584016000526020600020601f830160051c81016020841061090f575b601f830160051c820181106109035750506106e7565b600081556001016108ed565b50806108ed565b634e487b7160e01b600052601160045260246000fd5b60405162461bcd60e51b815260206004820152601360248201527210dbdb1b185d195c985b081c995c5d5a5c9959606a1b6044820152606490fd5b60405162461bcd60e51b815260206004820152601f60248201527f4475726174696f6e206d7573742062652067726561746572207468616e2030006044820152606490fd5b60405162461bcd60e51b815260206004820152601d60248201527f416d6f756e74206d7573742062652067726561746572207468616e20300000006044820152606490fd5b60208060031936011261013e5760043590610a0f6004548310611409565b81600052600081526040600020600c81019081549060ff8260081c16600681101561057157610b7957600181019283543403610b415781546001600160a01b03939084163314610b0557600783018054610100600160b01b0319163360101b62010000600160b01b03161761010090811790915561ff00199091161790554262278d0081019081106109165760009384938385949360098695015533845260038852610abe89604086206113d4565b5416905490828215610afc575bf115610517577f15feab5d3eb17171632762cf769709a315dd15f487a556c0dfb8a259c8f186cc90604051338152a2005b506108fc610acb565b60405162461bcd60e51b815260048101879052601460248201527321b0b73737ba10333ab7321037bbb7103637b0b760611b6044820152606490fd5b60405162461bcd60e51b815260048101869052601060248201526f125b98dbdc9c9958dd08185b5bdd5b9d60821b6044820152606490fd5b60405162461bcd60e51b81526004810185905260126024820152714c6f616e206e6f7420617661696c61626c6560701b6044820152606490fd5b3461013e5760208060031936011261013e5760043590610bd66004548310611409565b600082815280825260409020600701546001600160a01b0391903360109190911c831603610d445782600052600081526040600020600c810180549260ff8460081c1660068110156105715760018114908115610d39575b5015610cff57600983015462093a80810180911161091657421115610cbb57856000808080898960068a8a610401600783019485549560ff198716905561ffff191617905501549183918315610cb1575b60101c1690f115610517577f0789b7097e8066538cfaa1132488b132e14ba5f0c938c8b7aaf8cf40356aab0b600080a2005b6108fc9250610c7f565b6064906040519062461bcd60e51b82526004820152601860248201527f477261636520706572696f64206e6f74206578706972656400000000000000006044820152fd5b6064906040519062461bcd60e51b825260048201526013602482015272496e76616c6964206c6f616e2073746174757360681b6044820152fd5b600291501487610c2e565b6064906040519062461bcd60e51b82526004820152600e60248201526d2737ba103a3432903632b73232b960911b6044820152fd5b60208060031936011261013e5760043590610d976004548310611409565b816000526000815260018060a01b0390610db98260406000205416331461144b565b8260005260008152604060002090600c820180549260ff8460081c1660068110156105715760018114908115611054575b501561101d573415610fd857600b81019081549260088201938454610e0f818361148a565b3411610f9557610e209034906113b4565b9081865562278d0042019283421161091657610e4d93600986015561020061ff0019809a1617905561148a565b60405190610e5a8261123f565b34825285820142815260408301918252896000526001875260406000208054600160401b81101561043457610e949160018201815561127d565b949094610f7f5760009460028695948695948695518455516001840155519101558960073492015460101c1682f11561051757549054857fcf358e925a8e033c6db877f18d10df6f21cd04ef165537bad5fc814eb23af9606040610ef8848661148a565b81519034825287820152a21015610f0b57005b600080939260068294838095898252526040842092610300600c8501918254161790556007830160ff19815416905582541691015490828215610f76575bf115610517577f02ca5489b37dd363d1302bac719e8ee40e540ffbe8c12253570fea63e11cad71600080a2005b506108fc610f49565b634e487b7160e01b600052600060045260246000fd5b6064876040519062461bcd60e51b825280600483015260248201527f5061796d656e7420657863656564732072656d61696e696e6720616d6f756e746044820152fd5b60405162461bcd60e51b815260048101849052601e60248201527f5061796d656e74206d7573742062652067726561746572207468616e203000006044820152606490fd5b60405162461bcd60e51b815260048101849052600f60248201526e4c6f616e206e6f742061637469766560881b6044820152606490fd5b600291501487610dea565b3461013e57602036600319011261013e5760043560005260006020526040600020600160a01b600190038082541690600183015492600281015491600382015490600683015490600784015490600885015490600986015492600a87015494600b88015496600c890154986005016110d6906112d3565b996040519c8d9c8d5260208d015260408c015260608b015260808a015260ff8116151560a08a015260101c1660c088015260e087015261010086015261012085015261014084015260ff8116151561016084015261018083019060081c60ff1690611140916111f2565b6101c0806101a08401528201610123916111ff565b3461013e57604036600319011261013e5761116e6111ae565b6001600160a01b031660009081526003602052604090208054602435919082101561013e5760209161119f916111c4565b90549060031b1c604051908152f35b600435906001600160a01b038216820361013e57565b80548210156111dc5760005260206000200190600090565b634e487b7160e01b600052603260045260246000fd5b9060068210156105715752565b919082519283825260005b84811061122b575050826000602080949584010152601f8019910116010190565b60208183018101518483018201520161120a565b6060810190811067ffffffffffffffff82111761043457604052565b90601f8019910116810190811067ffffffffffffffff82111761043457604052565b80548210156111dc576000526003602060002091020190600090565b90600182811c921680156112c9575b60208310146112b357565b634e487b7160e01b600052602260045260246000fd5b91607f16916112a8565b90604051918260008254926112e784611299565b9081845260019485811690816000146113565750600114611313575b50506113119250038361125b565b565b9093915060005260209081600020936000915b81831061133e57505061131193508201013880611303565b85548884018501529485019487945091830191611326565b91505061131194506020925060ff191682840152151560051b8201013880611303565b6020908160408183019282815285518094520193019160005b8281106113a0575050505090565b835185529381019392810192600101611392565b9190820180921161091657565b8181029291811591840414171561091657565b8054600160401b811015610434576113f1916001820181556111c4565b819291549060031b91821b91600019901b1916179055565b1561141057565b60405162461bcd60e51b8152602060048201526013602482015272131bd85b88191bd95cc81b9bdd08195e1a5cdd606a1b6044820152606490fd5b1561145257565b60405162461bcd60e51b815260206004820152601060248201526f2737ba103a3432903137b93937bbb2b960811b6044820152606490fd5b919082039182116109165756fea2646970667358221220f95fc7b5c74a16e789859bc82db1ba0126ca6a5f2abe1b35fd0f65701562e5ff64736f6c63430008130033","opcodes":"PUSH1 0x80 DUP1 PUSH1 0x40 MSTORE CALLVALUE PUSH2 0x16 JUMPI PUSH2 0x14CD SWAP1 DUP2 PUSH2 0x1C DUP3 CODECOPY RETURN JUMPDEST PUSH1 0x0 DUP1 REVERT INVALID PUSH1 0x80 PUSH1 0x40 MSTORE PUSH1 0x4 CALLDATASIZE LT ISZERO PUSH2 0x12 JUMPI PUSH1 0x0 DUP1 REVERT JUMPDEST PUSH1 0x0 CALLDATALOAD PUSH1 0xE0 SHR DUP1 PUSH4 0x3CDB72F1 EQ PUSH2 0x1155 JUMPI DUP1 PUSH4 0x504006CA EQ PUSH2 0x105F JUMPI DUP1 PUSH4 0x5114CB52 EQ PUSH2 0xD79 JUMPI DUP1 PUSH4 0x67BF61C4 EQ PUSH2 0xBB3 JUMPI DUP1 PUSH4 0x846B909A EQ PUSH2 0x9F1 JUMPI DUP1 PUSH4 0x84733294 EQ PUSH2 0x5E1 JUMPI DUP1 PUSH4 0xAF3D3E98 EQ PUSH2 0x587 JUMPI DUP1 PUSH4 0xBDBFA3DE EQ PUSH2 0x44A JUMPI DUP1 PUSH4 0xCE473114 EQ PUSH2 0x33F JUMPI DUP1 PUSH4 0xCE63094D EQ PUSH2 0x321 JUMPI DUP1 PUSH4 0xE1EC3C68 EQ PUSH2 0x213 JUMPI DUP1 PUSH4 0xE3ED1902 EQ PUSH2 0x1BB JUMPI DUP1 PUSH4 0xEEE8B7FF EQ PUSH2 0x143 JUMPI PUSH4 0xEEEB0C17 EQ PUSH2 0xB6 JUMPI PUSH1 0x0 DUP1 REVERT JUMPDEST CALLVALUE PUSH2 0x13E JUMPI PUSH1 0x20 DUP1 PUSH1 0x3 NOT CALLDATASIZE ADD SLT PUSH2 0x13E JUMPI PUSH1 0x1 PUSH1 0x1 PUSH1 0xA0 SHL SUB PUSH2 0xD8 PUSH2 0x11AE JUMP JUMPDEST AND PUSH1 0x0 MSTORE PUSH1 0x3 DUP2 MSTORE PUSH1 0x40 PUSH1 0x0 KECCAK256 SWAP1 PUSH1 0x40 MLOAD SWAP1 DUP2 DUP2 DUP5 SLOAD SWAP2 DUP3 DUP2 MSTORE ADD SWAP4 PUSH1 0x0 MSTORE DUP2 PUSH1 0x0 KECCAK256 SWAP2 PUSH1 0x0 SWAP1 JUMPDEST DUP3 DUP3 LT PUSH2 0x127 JUMPI PUSH2 0x123 DUP6 PUSH2 0x117 DUP2 DUP10 SUB DUP3 PUSH2 0x125B JUMP JUMPDEST PUSH1 0x40 MLOAD SWAP2 DUP3 SWAP2 DUP3 PUSH2 0x1379 JUMP JUMPDEST SUB SWAP1 RETURN JUMPDEST DUP4 SLOAD DUP7 MSTORE SWAP5 DUP6 ADD SWAP5 PUSH1 0x1 SWAP4 DUP5 ADD SWAP4 SWAP1 SWAP2 ADD SWAP1 PUSH2 0x100 JUMP JUMPDEST PUSH1 0x0 DUP1 REVERT JUMPDEST CALLVALUE PUSH2 0x13E JUMPI PUSH1 0x20 DUP1 PUSH1 0x3 NOT CALLDATASIZE ADD SLT PUSH2 0x13E JUMPI PUSH1 0x1 PUSH1 0x1 PUSH1 0xA0 SHL SUB PUSH2 0x165 PUSH2 0x11AE JUMP JUMPDEST AND PUSH1 0x0 MSTORE PUSH1 0x2 DUP2 MSTORE PUSH1 0x40 PUSH1 0x0 KECCAK256 SWAP1 PUSH1 0x40 MLOAD SWAP1 DUP2 DUP2 DUP5 SLOAD SWAP2 DUP3 DUP2 MSTORE ADD SWAP4 PUSH1 0x0 MSTORE DUP2 PUSH1 0x0 KECCAK256 SWAP2 PUSH1 0x0 SWAP1 JUMPDEST DUP3 DUP3 LT PUSH2 0x1A4 JUMPI PUSH2 0x123 DUP6 PUSH2 0x117 DUP2 DUP10 SUB DUP3 PUSH2 0x125B JUMP JUMPDEST DUP4 SLOAD DUP7 MSTORE SWAP5 DUP6 ADD SWAP5 PUSH1 0x1 SWAP4 DUP5 ADD SWAP4 SWAP1 SWAP2 ADD SWAP1 PUSH2 0x18D JUMP JUMPDEST CALLVALUE PUSH2 0x13E JUMPI PUSH1 0x40 CALLDATASIZE PUSH1 0x3 NOT ADD SLT PUSH2 0x13E JUMPI PUSH2 0x1D4 PUSH2 0x11AE JUMP JUMPDEST PUSH1 0x1 PUSH1 0x1 PUSH1 0xA0 SHL SUB AND PUSH1 0x0 SWAP1 DUP2 MSTORE PUSH1 0x2 PUSH1 0x20 MSTORE PUSH1 0x40 SWAP1 KECCAK256 DUP1 SLOAD PUSH1 0x24 CALLDATALOAD SWAP2 SWAP1 DUP3 LT ISZERO PUSH2 0x13E JUMPI PUSH1 0x20 SWAP2 PUSH2 0x205 SWAP2 PUSH2 0x11C4 JUMP JUMPDEST SWAP1 SLOAD PUSH1 0x40 MLOAD SWAP2 PUSH1 0x3 SHL SHR DUP2 MSTORE RETURN JUMPDEST CALLVALUE PUSH2 0x13E JUMPI PUSH1 0x20 CALLDATASIZE PUSH1 0x3 NOT ADD SLT PUSH2 0x13E JUMPI PUSH1 0x4 CALLDATALOAD PUSH1 0x0 MSTORE PUSH1 0x0 PUSH1 0x20 MSTORE PUSH1 0x40 PUSH1 0x0 KECCAK256 PUSH1 0x1 PUSH1 0xA0 SHL PUSH1 0x1 SWAP1 SUB DUP1 DUP3 SLOAD AND SWAP1 PUSH1 0x1 DUP4 ADD SLOAD SWAP3 PUSH1 0x2 DUP2 ADD SLOAD SWAP1 PUSH1 0x3 DUP2 ADD SLOAD PUSH1 0x4 DUP3 ADD SLOAD PUSH1 0x5 DUP4 ADD PUSH2 0x265 SWAP1 PUSH2 0x12D3 JUMP JUMPDEST PUSH1 0x6 DUP5 ADD SLOAD SWAP6 PUSH1 0x7 DUP6 ADD SLOAD PUSH1 0x8 DUP7 ADD SLOAD SWAP3 PUSH1 0x9 DUP8 ADD SLOAD SWAP5 PUSH1 0xA DUP9 ADD SLOAD SWAP7 PUSH1 0xB DUP10 ADD SLOAD SWAP9 PUSH1 0xC ADD SLOAD SWAP10 PUSH1 0x40 MLOAD SWAP14 DUP15 DUP1 SWAP15 DUP2 MSTORE PUSH1 0x20 ADD MSTORE PUSH1 0x40 DUP14 ADD MSTORE PUSH1 0x60 DUP13 ADD MSTORE PUSH1 0x80 DUP12 ADD MSTORE PUSH2 0x200 DUP1 PUSH1 0xA0 DUP13 ADD MSTORE DUP11 ADD PUSH2 0x2BD SWAP2 PUSH2 0x11FF JUMP JUMPDEST SWAP8 PUSH1 0xC0 DUP11 ADD MSTORE PUSH1 0xFF DUP2 AND ISZERO ISZERO PUSH1 0xE0 DUP11 ADD MSTORE DUP1 PUSH1 0x8 SHR PUSH1 0xFF AND ISZERO ISZERO PUSH2 0x100 DUP11 ADD MSTORE PUSH1 0x10 SHR AND PUSH2 0x120 DUP9 ADD MSTORE PUSH2 0x140 DUP8 ADD MSTORE PUSH2 0x160 DUP7 ADD MSTORE PUSH2 0x180 DUP6 ADD MSTORE PUSH2 0x1A0 DUP5 ADD MSTORE PUSH1 0xFF DUP2 AND ISZERO ISZERO PUSH2 0x1C0 DUP5 ADD MSTORE PUSH2 0x1E0 DUP4 ADD SWAP1 PUSH1 0x8 SHR PUSH1 0xFF AND SWAP1 PUSH2 0x123 SWAP2 PUSH2 0x11F2 JUMP JUMPDEST CALLVALUE PUSH2 0x13E JUMPI PUSH1 0x0 CALLDATASIZE PUSH1 0x3 NOT ADD SLT PUSH2 0x13E JUMPI PUSH1 0x20 PUSH1 0x4 SLOAD PUSH1 0x40 MLOAD SWAP1 DUP2 MSTORE RETURN JUMPDEST CALLVALUE PUSH2 0x13E JUMPI PUSH1 0x20 DUP1 PUSH1 0x3 NOT CALLDATASIZE ADD SLT PUSH2 0x13E JUMPI PUSH1 0x4 CALLDATALOAD PUSH1 0x0 MSTORE PUSH1 0x1 SWAP1 DUP2 DUP2 MSTORE PUSH1 0x40 PUSH1 0x0 KECCAK256 DUP1 SLOAD PUSH8 0xFFFFFFFFFFFFFFFF DUP2 GT PUSH2 0x434 JUMPI DUP4 DUP4 PUSH1 0x40 MLOAD SWAP3 PUSH2 0x388 DUP3 DUP3 PUSH1 0x5 SHL ADD DUP6 PUSH2 0x125B JUMP JUMPDEST DUP1 DUP5 MSTORE DUP2 DUP5 ADD DUP1 SWAP6 PUSH1 0x0 MSTORE DUP3 PUSH1 0x0 KECCAK256 PUSH1 0x0 SWAP2 JUMPDEST DUP4 DUP4 LT PUSH2 0x3F4 JUMPI POP POP POP POP PUSH1 0x40 MLOAD SWAP3 DUP2 DUP5 ADD SWAP1 DUP3 DUP6 MSTORE MLOAD DUP1 SWAP2 MSTORE PUSH1 0x40 DUP5 ADD SWAP5 SWAP2 PUSH1 0x0 JUMPDEST DUP3 DUP2 LT PUSH2 0x3CB JUMPI DUP6 DUP8 SUB DUP7 RETURN JUMPDEST DUP4 MLOAD DUP1 MLOAD DUP9 MSTORE DUP3 DUP2 ADD MLOAD DUP4 DUP10 ADD MSTORE PUSH1 0x40 SWAP1 DUP2 ADD MLOAD SWAP1 DUP9 ADD MSTORE PUSH1 0x60 SWAP1 SWAP7 ADD SWAP6 SWAP3 DUP2 ADD SWAP3 DUP5 ADD PUSH2 0x3BE JUMP JUMPDEST SWAP5 PUSH1 0x3 DUP6 DUP3 SWAP10 SWAP8 PUSH1 0x40 SWAP10 SWAP8 SWAP10 MLOAD PUSH2 0x40A DUP2 PUSH2 0x123F JUMP JUMPDEST DUP6 SLOAD DUP2 MSTORE DUP5 DUP7 ADD SLOAD DUP4 DUP3 ADD MSTORE PUSH1 0x2 DUP7 ADD SLOAD PUSH1 0x40 DUP3 ADD MSTORE DUP2 MSTORE ADD SWAP3 ADD SWAP3 ADD SWAP2 SWAP1 SWAP7 SWAP5 SWAP7 SWAP6 SWAP4 SWAP6 PUSH2 0x39B JUMP JUMPDEST PUSH4 0x4E487B71 PUSH1 0xE0 SHL PUSH1 0x0 MSTORE PUSH1 0x41 PUSH1 0x4 MSTORE PUSH1 0x24 PUSH1 0x0 REVERT JUMPDEST CALLVALUE PUSH2 0x13E JUMPI PUSH1 0x20 CALLDATASIZE PUSH1 0x3 NOT ADD SLT PUSH2 0x13E JUMPI PUSH1 0x4 CALLDATALOAD PUSH2 0x46B PUSH1 0x4 SLOAD DUP3 LT PUSH2 0x1409 JUMP JUMPDEST DUP1 PUSH1 0x0 MSTORE PUSH1 0x0 PUSH1 0x20 MSTORE PUSH1 0x1 DUP1 PUSH1 0xA0 SHL SUB PUSH2 0x48D DUP2 PUSH1 0x40 PUSH1 0x0 KECCAK256 SLOAD AND CALLER EQ PUSH2 0x144B JUMP JUMPDEST DUP2 PUSH1 0x0 MSTORE PUSH1 0x0 PUSH1 0x20 MSTORE PUSH1 0x40 PUSH1 0x0 KECCAK256 SWAP1 PUSH1 0xC DUP3 ADD SWAP1 DUP2 SLOAD SWAP2 PUSH1 0xFF DUP4 PUSH1 0x8 SHR AND PUSH1 0x6 DUP2 LT ISZERO PUSH2 0x571 JUMPI PUSH2 0x52C JUMPI PUSH1 0x0 DUP1 DUP6 PUSH1 0x6 DUP3 SWAP6 DUP4 SWAP6 PUSH2 0x500 DUP12 SWAP10 PUSH2 0xFF00 NOT AND OR SWAP1 SSTORE PUSH1 0x7 DUP4 ADD PUSH1 0xFF NOT DUP2 SLOAD AND SWAP1 SSTORE DUP3 SLOAD AND SWAP2 ADD SLOAD SWAP1 DUP3 DUP3 ISZERO PUSH2 0x523 JUMPI JUMPDEST CALL ISZERO PUSH2 0x517 JUMPI PUSH32 0xB71BECC91961A6B43BCC5B3B630F3DCE02C7FD444CF3738C4F188062B1CAF5BC PUSH1 0x0 DUP1 LOG2 STOP JUMPDEST PUSH1 0x40 MLOAD RETURNDATASIZE PUSH1 0x0 DUP3 RETURNDATACOPY RETURNDATASIZE SWAP1 REVERT JUMPDEST POP PUSH2 0x8FC PUSH2 0x4EA JUMP JUMPDEST PUSH1 0x40 MLOAD PUSH3 0x461BCD PUSH1 0xE5 SHL DUP2 MSTORE PUSH1 0x20 PUSH1 0x4 DUP3 ADD MSTORE PUSH1 0x1D PUSH1 0x24 DUP3 ADD MSTORE PUSH32 0x43616E206F6E6C792063616E63656C2070656E64696E67206C6F616E73000000 PUSH1 0x44 DUP3 ADD MSTORE PUSH1 0x64 SWAP1 REVERT JUMPDEST PUSH4 0x4E487B71 PUSH1 0xE0 SHL PUSH1 0x0 MSTORE PUSH1 0x21 PUSH1 0x4 MSTORE PUSH1 0x24 PUSH1 0x0 REVERT JUMPDEST CALLVALUE PUSH2 0x13E JUMPI PUSH1 0x40 CALLDATASIZE PUSH1 0x3 NOT ADD SLT PUSH2 0x13E JUMPI PUSH1 0x24 CALLDATALOAD PUSH1 0x4 CALLDATALOAD PUSH1 0x0 MSTORE PUSH1 0x1 PUSH1 0x20 MSTORE PUSH1 0x40 PUSH1 0x0 KECCAK256 DUP1 SLOAD DUP3 LT ISZERO PUSH2 0x13E JUMPI PUSH1 0x60 SWAP2 PUSH2 0x5C0 SWAP2 PUSH2 0x127D JUMP JUMPDEST POP DUP1 SLOAD SWAP1 PUSH1 0x2 PUSH1 0x1 DUP3 ADD SLOAD SWAP2 ADD SLOAD SWAP1 PUSH1 0x40 MLOAD SWAP3 DUP4 MSTORE PUSH1 0x20 DUP4 ADD MSTORE PUSH1 0x40 DUP3 ADD MSTORE RETURN JUMPDEST PUSH1 0x80 CALLDATASIZE PUSH1 0x3 NOT ADD SLT PUSH2 0x13E JUMPI PUSH1 0x64 CALLDATALOAD PUSH8 0xFFFFFFFFFFFFFFFF DUP1 DUP3 GT PUSH2 0x13E JUMPI CALLDATASIZE PUSH1 0x23 DUP4 ADD SLT ISZERO PUSH2 0x13E JUMPI DUP2 PUSH1 0x4 ADD CALLDATALOAD DUP2 DUP2 GT PUSH2 0x434 JUMPI PUSH1 0x40 MLOAD SWAP3 PUSH2 0x62F PUSH1 0x1F DUP4 ADD PUSH1 0x1F NOT AND PUSH1 0x20 ADD DUP6 PUSH2 0x125B JUMP JUMPDEST DUP2 DUP5 MSTORE CALLDATASIZE PUSH1 0x24 DUP4 DUP4 ADD ADD GT PUSH2 0x13E JUMPI DUP2 PUSH1 0x0 SWAP3 PUSH1 0x24 PUSH1 0x20 SWAP4 ADD DUP4 DUP8 ADD CALLDATACOPY DUP5 ADD ADD MSTORE PUSH1 0x4 CALLDATALOAD ISZERO PUSH2 0x9AC JUMPI PUSH1 0x44 CALLDATALOAD ISZERO PUSH2 0x967 JUMPI CALLVALUE ISZERO PUSH2 0x92C JUMPI PUSH1 0x4 SLOAD PUSH1 0x0 NOT DUP2 EQ PUSH2 0x916 JUMPI PUSH1 0x1 DUP2 ADD PUSH1 0x4 SSTORE DUP1 PUSH1 0x0 MSTORE PUSH1 0x0 PUSH1 0x20 MSTORE PUSH1 0x40 PUSH1 0x0 KECCAK256 SWAP2 CALLER PUSH12 0xFFFFFFFFFFFFFFFFFFFFFFFF PUSH1 0xA0 SHL DUP5 SLOAD AND OR DUP4 SSTORE PUSH1 0x4 CALLDATALOAD PUSH1 0x1 DUP5 ADD SSTORE PUSH1 0x24 CALLDATALOAD PUSH1 0x2 DUP5 ADD SSTORE PUSH1 0x44 CALLDATALOAD PUSH1 0x3 DUP5 ADD SSTORE PUSH2 0x6C3 PUSH1 0x44 CALLDATALOAD TIMESTAMP PUSH2 0x13B4 JUMP JUMPDEST PUSH1 0x4 DUP5 ADD SSTORE DUP4 MLOAD SWAP1 DUP2 GT PUSH2 0x434 JUMPI PUSH2 0x6DE PUSH1 0x5 DUP5 ADD SLOAD PUSH2 0x1299 JUMP JUMPDEST PUSH1 0x1F DUP2 GT PUSH2 0x8CF JUMPI JUMPDEST POP PUSH1 0x20 PUSH1 0x1F DUP3 GT PUSH1 0x1 EQ PUSH2 0x863 JUMPI DUP2 SWAP3 SWAP4 SWAP5 PUSH1 0x0 SWAP3 PUSH2 0x858 JUMPI JUMPDEST POP POP DUP2 PUSH1 0x1 SHL SWAP2 PUSH1 0x0 NOT SWAP1 PUSH1 0x3 SHL SHR NOT AND OR PUSH1 0x5 DUP4 ADD SSTORE JUMPDEST CALLVALUE PUSH1 0x6 DUP4 ADD SSTORE PUSH1 0x7 DUP3 ADD DUP1 SLOAD PUSH1 0xFF NOT AND PUSH1 0x1 OR SWAP1 SSTORE PUSH1 0xC DUP3 ADD DUP1 SLOAD PUSH2 0xFF00 NOT AND SWAP1 SSTORE PUSH2 0x765 PUSH4 0xBBF81E00 PUSH2 0x75C PUSH1 0x44 CALLDATALOAD PUSH2 0x757 PUSH1 0x24 CALLDATALOAD PUSH1 0x4 CALLDATALOAD PUSH2 0x13C1 JUMP JUMPDEST PUSH2 0x13C1 JUMP JUMPDEST DIV PUSH1 0x4 CALLDATALOAD PUSH2 0x13B4 JUMP JUMPDEST SWAP2 DUP3 PUSH1 0xB DUP3 ADD SSTORE PUSH3 0x278D00 DUP1 PUSH1 0x44 CALLDATALOAD MOD PUSH2 0x804 JUMPI PUSH1 0x44 CALLDATALOAD DIV SWAP3 DUP4 ISZERO PUSH2 0x7EE JUMPI PUSH1 0x20 SWAP4 PUSH1 0xA SWAP2 DIV SWAP2 ADD SSTORE CALLER PUSH1 0x0 MSTORE PUSH1 0x2 DUP3 MSTORE PUSH2 0x7A4 DUP2 PUSH1 0x40 PUSH1 0x0 KECCAK256 PUSH2 0x13D4 JUMP JUMPDEST DUP1 PUSH32 0xF6CC19E46A340AB5888D736BFC79AEF72AE92D12D7B76319D72B0ABC170868E6 PUSH1 0x80 PUSH1 0x40 MLOAD CALLER DUP2 MSTORE PUSH1 0x4 CALLDATALOAD DUP7 DUP3 ADD MSTORE PUSH1 0x24 CALLDATALOAD PUSH1 0x40 DUP3 ADD MSTORE PUSH1 0x44 CALLDATALOAD PUSH1 0x60 DUP3 ADD MSTORE LOG2 PUSH1 0x40 MLOAD SWAP1 DUP2 MSTORE RETURN JUMPDEST PUSH4 0x4E487B71 PUSH1 0xE0 SHL PUSH1 0x0 MSTORE PUSH1 0x12 PUSH1 0x4 MSTORE PUSH1 0x24 PUSH1 0x0 REVERT JUMPDEST PUSH1 0x40 MLOAD PUSH3 0x461BCD PUSH1 0xE5 SHL DUP2 MSTORE PUSH1 0x20 PUSH1 0x4 DUP3 ADD MSTORE PUSH1 0x26 PUSH1 0x24 DUP3 ADD MSTORE PUSH32 0x4475726174696F6E206D7573742062652061206D756C7469706C65206F662033 PUSH1 0x44 DUP3 ADD MSTORE PUSH6 0x302064617973 PUSH1 0xD0 SHL PUSH1 0x64 DUP3 ADD MSTORE PUSH1 0x84 SWAP1 REVERT JUMPDEST ADD MLOAD SWAP1 POP DUP5 DUP1 PUSH2 0x701 JUMP JUMPDEST PUSH1 0x1F NOT DUP3 AND SWAP1 PUSH1 0x5 DUP6 ADD PUSH1 0x0 MSTORE PUSH1 0x20 PUSH1 0x0 KECCAK256 SWAP2 PUSH1 0x0 JUMPDEST DUP2 DUP2 LT PUSH2 0x8B7 JUMPI POP SWAP6 DUP4 PUSH1 0x1 SWAP6 SWAP7 SWAP8 LT PUSH2 0x89E JUMPI JUMPDEST POP POP POP DUP2 SHL ADD PUSH1 0x5 DUP4 ADD SSTORE PUSH2 0x719 JUMP JUMPDEST ADD MLOAD PUSH1 0x0 NOT PUSH1 0xF8 DUP5 PUSH1 0x3 SHL AND SHR NOT AND SWAP1 SSTORE DUP5 DUP1 DUP1 PUSH2 0x88E JUMP JUMPDEST SWAP2 SWAP3 PUSH1 0x20 PUSH1 0x1 DUP2 SWAP3 DUP7 DUP12 ADD MLOAD DUP2 SSTORE ADD SWAP5 ADD SWAP3 ADD PUSH2 0x879 JUMP JUMPDEST PUSH1 0x5 DUP5 ADD PUSH1 0x0 MSTORE PUSH1 0x20 PUSH1 0x0 KECCAK256 PUSH1 0x1F DUP4 ADD PUSH1 0x5 SHR DUP2 ADD PUSH1 0x20 DUP5 LT PUSH2 0x90F JUMPI JUMPDEST PUSH1 0x1F DUP4 ADD PUSH1 0x5 SHR DUP3 ADD DUP2 LT PUSH2 0x903 JUMPI POP POP PUSH2 0x6E7 JUMP JUMPDEST PUSH1 0x0 DUP2 SSTORE PUSH1 0x1 ADD PUSH2 0x8ED JUMP JUMPDEST POP DUP1 PUSH2 0x8ED JUMP JUMPDEST PUSH4 0x4E487B71 PUSH1 0xE0 SHL PUSH1 0x0 MSTORE PUSH1 0x11 PUSH1 0x4 MSTORE PUSH1 0x24 PUSH1 0x0 REVERT JUMPDEST PUSH1 0x40 MLOAD PUSH3 0x461BCD PUSH1 0xE5 SHL DUP2 MSTORE PUSH1 0x20 PUSH1 0x4 DUP3 ADD MSTORE PUSH1 0x13 PUSH1 0x24 DUP3 ADD MSTORE PUSH19 0x10DBDB1B185D195C985B081C995C5D5A5C9959 PUSH1 0x6A SHL PUSH1 0x44 DUP3 ADD MSTORE PUSH1 0x64 SWAP1 REVERT JUMPDEST PUSH1 0x40 MLOAD PUSH3 0x461BCD PUSH1 0xE5 SHL DUP2 MSTORE PUSH1 0x20 PUSH1 0x4 DUP3 ADD MSTORE PUSH1 0x1F PUSH1 0x24 DUP3 ADD MSTORE PUSH32 0x4475726174696F6E206D7573742062652067726561746572207468616E203000 PUSH1 0x44 DUP3 ADD MSTORE PUSH1 0x64 SWAP1 REVERT JUMPDEST PUSH1 0x40 MLOAD PUSH3 0x461BCD PUSH1 0xE5 SHL DUP2 MSTORE PUSH1 0x20 PUSH1 0x4 DUP3 ADD MSTORE PUSH1 0x1D PUSH1 0x24 DUP3 ADD MSTORE PUSH32 0x416D6F756E74206D7573742062652067726561746572207468616E2030000000 PUSH1 0x44 DUP3 ADD MSTORE PUSH1 0x64 SWAP1 REVERT JUMPDEST PUSH1 0x20 DUP1 PUSH1 0x3 NOT CALLDATASIZE ADD SLT PUSH2 0x13E JUMPI PUSH1 0x4 CALLDATALOAD SWAP1 PUSH2 0xA0F PUSH1 0x4 SLOAD DUP4 LT PUSH2 0x1409 JUMP JUMPDEST DUP2 PUSH1 0x0 MSTORE PUSH1 0x0 DUP2 MSTORE PUSH1 0x40 PUSH1 0x0 KECCAK256 PUSH1 0xC DUP2 ADD SWAP1 DUP2 SLOAD SWAP1 PUSH1 0xFF DUP3 PUSH1 0x8 SHR AND PUSH1 0x6 DUP2 LT ISZERO PUSH2 0x571 JUMPI PUSH2 0xB79 JUMPI PUSH1 0x1 DUP2 ADD SWAP3 DUP4 SLOAD CALLVALUE SUB PUSH2 0xB41 JUMPI DUP2 SLOAD PUSH1 0x1 PUSH1 0x1 PUSH1 0xA0 SHL SUB SWAP4 SWAP1 DUP5 AND CALLER EQ PUSH2 0xB05 JUMPI PUSH1 0x7 DUP4 ADD DUP1 SLOAD PUSH2 0x100 PUSH1 0x1 PUSH1 0xB0 SHL SUB NOT AND CALLER PUSH1 0x10 SHL PUSH3 0x10000 PUSH1 0x1 PUSH1 0xB0 SHL SUB AND OR PUSH2 0x100 SWAP1 DUP2 OR SWAP1 SWAP2 SSTORE PUSH2 0xFF00 NOT SWAP1 SWAP2 AND OR SWAP1 SSTORE TIMESTAMP PUSH3 0x278D00 DUP2 ADD SWAP1 DUP2 LT PUSH2 0x916 JUMPI PUSH1 0x0 SWAP4 DUP5 SWAP4 DUP4 DUP6 SWAP5 SWAP4 PUSH1 0x9 DUP7 SWAP6 ADD SSTORE CALLER DUP5 MSTORE PUSH1 0x3 DUP9 MSTORE PUSH2 0xABE DUP10 PUSH1 0x40 DUP7 KECCAK256 PUSH2 0x13D4 JUMP JUMPDEST SLOAD AND SWAP1 SLOAD SWAP1 DUP3 DUP3 ISZERO PUSH2 0xAFC JUMPI JUMPDEST CALL ISZERO PUSH2 0x517 JUMPI PUSH32 0x15FEAB5D3EB17171632762CF769709A315DD15F487A556C0DFB8A259C8F186CC SWAP1 PUSH1 0x40 MLOAD CALLER DUP2 MSTORE LOG2 STOP JUMPDEST POP PUSH2 0x8FC PUSH2 0xACB JUMP JUMPDEST PUSH1 0x40 MLOAD PUSH3 0x461BCD PUSH1 0xE5 SHL DUP2 MSTORE PUSH1 0x4 DUP2 ADD DUP8 SWAP1 MSTORE PUSH1 0x14 PUSH1 0x24 DUP3 ADD MSTORE PUSH20 0x21B0B73737BA10333AB7321037BBB7103637B0B7 PUSH1 0x61 SHL PUSH1 0x44 DUP3 ADD MSTORE PUSH1 0x64 SWAP1 REVERT JUMPDEST PUSH1 0x40 MLOAD PUSH3 0x461BCD PUSH1 0xE5 SHL DUP2 MSTORE PUSH1 0x4 DUP2 ADD DUP7 SWAP1 MSTORE PUSH1 0x10 PUSH1 0x24 DUP3 ADD MSTORE PUSH16 0x125B98DBDC9C9958DD08185B5BDD5B9D PUSH1 0x82 SHL PUSH1 0x44 DUP3 ADD MSTORE PUSH1 0x64 SWAP1 REVERT JUMPDEST PUSH1 0x40 MLOAD PUSH3 0x461BCD PUSH1 0xE5 SHL DUP2 MSTORE PUSH1 0x4 DUP2 ADD DUP6 SWAP1 MSTORE PUSH1 0x12 PUSH1 0x24 DUP3 ADD MSTORE PUSH18 0x4C6F616E206E6F7420617661696C61626C65 PUSH1 0x70 SHL PUSH1 0x44 DUP3 ADD MSTORE PUSH1 0x64 SWAP1 REVERT JUMPDEST CALLVALUE PUSH2 0x13E JUMPI PUSH1 0x20 DUP1 PUSH1 0x3 NOT CALLDATASIZE ADD SLT PUSH2 0x13E JUMPI PUSH1 0x4 CALLDATALOAD SWAP1 PUSH2 0xBD6 PUSH1 0x4 SLOAD DUP4 LT PUSH2 0x1409 JUMP JUMPDEST PUSH1 0x0 DUP3 DUP2 MSTORE DUP1 DUP3 MSTORE PUSH1 0x40 SWAP1 KECCAK256 PUSH1 0x7 ADD SLOAD PUSH1 0x1 PUSH1 0x1 PUSH1 0xA0 SHL SUB SWAP2 SWAP1 CALLER PUSH1 0x10 SWAP2 SWAP1 SWAP2 SHR DUP4 AND SUB PUSH2 0xD44 JUMPI DUP3 PUSH1 0x0 MSTORE PUSH1 0x0 DUP2 MSTORE PUSH1 0x40 PUSH1 0x0 KECCAK256 PUSH1 0xC DUP2 ADD DUP1 SLOAD SWAP3 PUSH1 0xFF DUP5 PUSH1 0x8 SHR AND PUSH1 0x6 DUP2 LT ISZERO PUSH2 0x571 JUMPI PUSH1 0x1 DUP2 EQ SWAP1 DUP2 ISZERO PUSH2 0xD39 JUMPI JUMPDEST POP ISZERO PUSH2 0xCFF JUMPI PUSH1 0x9 DUP4 ADD SLOAD PUSH3 0x93A80 DUP2 ADD DUP1 SWAP2 GT PUSH2 0x916 JUMPI TIMESTAMP GT ISZERO PUSH2 0xCBB JUMPI DUP6 PUSH1 0x0 DUP1 DUP1 DUP1 DUP10 DUP10 PUSH1 0x6 DUP11 DUP11 PUSH2 0x401 PUSH1 0x7 DUP4 ADD SWAP5 DUP6 SLOAD SWAP6 PUSH1 0xFF NOT DUP8 AND SWAP1 SSTORE PUSH2 0xFFFF NOT AND OR SWAP1 SSTORE ADD SLOAD SWAP2 DUP4 SWAP2 DUP4 ISZERO PUSH2 0xCB1 JUMPI JUMPDEST PUSH1 0x10 SHR AND SWAP1 CALL ISZERO PUSH2 0x517 JUMPI PUSH32 0x789B7097E8066538CFAA1132488B132E14BA5F0C938C8B7AAF8CF40356AAB0B PUSH1 0x0 DUP1 LOG2 STOP JUMPDEST PUSH2 0x8FC SWAP3 POP PUSH2 0xC7F JUMP JUMPDEST PUSH1 0x64 SWAP1 PUSH1 0x40 MLOAD SWAP1 PUSH3 0x461BCD PUSH1 0xE5 SHL DUP3 MSTORE PUSH1 0x4 DUP3 ADD MSTORE PUSH1 0x18 PUSH1 0x24 DUP3 ADD MSTORE PUSH32 0x477261636520706572696F64206E6F7420657870697265640000000000000000 PUSH1 0x44 DUP3 ADD MSTORE REVERT JUMPDEST PUSH1 0x64 SWAP1 PUSH1 0x40 MLOAD SWAP1 PUSH3 0x461BCD PUSH1 0xE5 SHL DUP3 MSTORE PUSH1 0x4 DUP3 ADD MSTORE PUSH1 0x13 PUSH1 0x24 DUP3 ADD MSTORE PUSH19 0x496E76616C6964206C6F616E20737461747573 PUSH1 0x68 SHL PUSH1 0x44 DUP3 ADD MSTORE REVERT JUMPDEST PUSH1 0x2 SWAP2 POP EQ DUP8 PUSH2 0xC2E JUMP JUMPDEST PUSH1 0x64 SWAP1 PUSH1 0x40 MLOAD SWAP1 PUSH3 0x461BCD PUSH1 0xE5 SHL DUP3 MSTORE PUSH1 0x4 DUP3 ADD MSTORE PUSH1 0xE PUSH1 0x24 DUP3 ADD MSTORE PUSH14 0x2737BA103A3432903632B73232B9 PUSH1 0x91 SHL PUSH1 0x44 DUP3 ADD MSTORE REVERT JUMPDEST PUSH1 0x20 DUP1 PUSH1 0x3 NOT CALLDATASIZE ADD SLT PUSH2 0x13E JUMPI PUSH1 0x4 CALLDATALOAD SWAP1 PUSH2 0xD97 PUSH1 0x4 SLOAD DUP4 LT PUSH2 0x1409 JUMP JUMPDEST DUP2 PUSH1 0x0 MSTORE PUSH1 0x0 DUP2 MSTORE PUSH1 0x1 DUP1 PUSH1 0xA0 SHL SUB SWAP1 PUSH2 0xDB9 DUP3 PUSH1 0x40 PUSH1 0x0 KECCAK256 SLOAD AND CALLER EQ PUSH2 0x144B JUMP JUMPDEST DUP3 PUSH1 0x0 MSTORE PUSH1 0x0 DUP2 MSTORE PUSH1 0x40 PUSH1 0x0 KECCAK256 SWAP1 PUSH1 0xC DUP3 ADD DUP1 SLOAD SWAP3 PUSH1 0xFF DUP5 PUSH1 0x8 SHR AND PUSH1 0x6 DUP2 LT ISZERO PUSH2 0x571 JUMPI PUSH1 0x1 DUP2 EQ SWAP1 DUP2 ISZERO PUSH2 0x1054 JUMPI JUMPDEST POP ISZERO PUSH2 0x101D JUMPI CALLVALUE ISZERO PUSH2 0xFD8 JUMPI PUSH1 0xB DUP2 ADD SWAP1 DUP2 SLOAD SWAP3 PUSH1 0x8 DUP3 ADD SWAP4 DUP5 SLOAD PUSH2 0xE0F DUP2 DUP4 PUSH2 0x148A JUMP JUMPDEST CALLVALUE GT PUSH2 0xF95 JUMPI PUSH2 0xE20 SWAP1 CALLVALUE SWAP1 PUSH2 0x13B4 JUMP JUMPDEST SWAP1 DUP2 DUP7 SSTORE PUSH3 0x278D00 TIMESTAMP ADD SWAP3 DUP4 TIMESTAMP GT PUSH2 0x916 JUMPI PUSH2 0xE4D SWAP4 PUSH1 0x9 DUP7 ADD SSTORE PUSH2 0x200 PUSH2 0xFF00 NOT DUP1 SWAP11 AND OR SWAP1 SSTORE PUSH2 0x148A JUMP JUMPDEST PUSH1 0x40 MLOAD SWAP1 PUSH2 0xE5A DUP3 PUSH2 0x123F JUMP JUMPDEST CALLVALUE DUP3 MSTORE DUP6 DUP3 ADD TIMESTAMP DUP2 MSTORE PUSH1 0x40 DUP4 ADD SWAP2 DUP3 MSTORE DUP10 PUSH1 0x0 MSTORE PUSH1 0x1 DUP8 MSTORE PUSH1 0x40 PUSH1 0x0 KECCAK256 DUP1 SLOAD PUSH1 0x1 PUSH1 0x40 SHL DUP2 LT ISZERO PUSH2 0x434 JUMPI PUSH2 0xE94 SWAP2 PUSH1 0x1 DUP3 ADD DUP2 SSTORE PUSH2 0x127D JUMP JUMPDEST SWAP5 SWAP1 SWAP5 PUSH2 0xF7F JUMPI PUSH1 0x0 SWAP5 PUSH1 0x2 DUP7 SWAP6 SWAP5 DUP7 SWAP6 SWAP5 DUP7 SWAP6 MLOAD DUP5 SSTORE MLOAD PUSH1 0x1 DUP5 ADD SSTORE MLOAD SWAP2 ADD SSTORE DUP10 PUSH1 0x7 CALLVALUE SWAP3 ADD SLOAD PUSH1 0x10 SHR AND DUP3 CALL ISZERO PUSH2 0x517 JUMPI SLOAD SWAP1 SLOAD DUP6 PUSH32 0xCF358E925A8E033C6DB877F18D10DF6F21CD04EF165537BAD5FC814EB23AF960 PUSH1 0x40 PUSH2 0xEF8 DUP5 DUP7 PUSH2 0x148A JUMP JUMPDEST DUP2 MLOAD SWAP1 CALLVALUE DUP3 MSTORE DUP8 DUP3 ADD MSTORE LOG2 LT ISZERO PUSH2 0xF0B JUMPI STOP JUMPDEST PUSH1 0x0 DUP1 SWAP4 SWAP3 PUSH1 0x6 DUP3 SWAP5 DUP4 DUP1 SWAP6 DUP10 DUP3 MSTORE MSTORE PUSH1 0x40 DUP5 KECCAK256 SWAP3 PUSH2 0x300 PUSH1 0xC DUP6 ADD SWAP2 DUP3 SLOAD AND OR SWAP1 SSTORE PUSH1 0x7 DUP4 ADD PUSH1 0xFF NOT DUP2 SLOAD AND SWAP1 SSTORE DUP3 SLOAD AND SWAP2 ADD SLOAD SWAP1 DUP3 DUP3 ISZERO PUSH2 0xF76 JUMPI JUMPDEST CALL ISZERO PUSH2 0x517 JUMPI PUSH32 0x2CA5489B37DD363D1302BAC719E8EE40E540FFBE8C12253570FEA63E11CAD71 PUSH1 0x0 DUP1 LOG2 STOP JUMPDEST POP PUSH2 0x8FC PUSH2 0xF49 JUMP JUMPDEST PUSH4 0x4E487B71 PUSH1 0xE0 SHL PUSH1 0x0 MSTORE PUSH1 0x0 PUSH1 0x4 MSTORE PUSH1 0x24 PUSH1 0x0 REVERT JUMPDEST PUSH1 0x64 DUP8 PUSH1 0x40 MLOAD SWAP1 PUSH3 0x461BCD PUSH1 0xE5 SHL DUP3 MSTORE DUP1 PUSH1 0x4 DUP4 ADD MSTORE PUSH1 0x24 DUP3 ADD MSTORE PUSH32 0x5061796D656E7420657863656564732072656D61696E696E6720616D6F756E74 PUSH1 0x44 DUP3 ADD MSTORE REVERT JUMPDEST PUSH1 0x40 MLOAD PUSH3 0x461BCD PUSH1 0xE5 SHL DUP2 MSTORE PUSH1 0x4 DUP2 ADD DUP5 SWAP1 MSTORE PUSH1 0x1E PUSH1 0x24 DUP3 ADD MSTORE PUSH32 0x5061796D656E74206D7573742062652067726561746572207468616E20300000 PUSH1 0x44 DUP3 ADD MSTORE PUSH1 0x64 SWAP1 REVERT JUMPDEST PUSH1 0x40 MLOAD PUSH3 0x461BCD PUSH1 0xE5 SHL DUP2 MSTORE PUSH1 0x4 DUP2 ADD DUP5 SWAP1 MSTORE PUSH1 0xF PUSH1 0x24 DUP3 ADD MSTORE PUSH15 0x4C6F616E206E6F7420616374697665 PUSH1 0x88 SHL PUSH1 0x44 DUP3 ADD MSTORE PUSH1 0x64 SWAP1 REVERT JUMPDEST PUSH1 0x2 SWAP2 POP EQ DUP8 PUSH2 0xDEA JUMP JUMPDEST CALLVALUE PUSH2 0x13E JUMPI PUSH1 0x20 CALLDATASIZE PUSH1 0x3 NOT ADD SLT PUSH2 0x13E JUMPI PUSH1 0x4 CALLDATALOAD PUSH1 0x0 MSTORE PUSH1 0x0 PUSH1 0x20 MSTORE PUSH1 0x40 PUSH1 0x0 KECCAK256 PUSH1 0x1 PUSH1 0xA0 SHL PUSH1 0x1 SWAP1 SUB DUP1 DUP3 SLOAD AND SWAP1 PUSH1 0x1 DUP4 ADD SLOAD SWAP3 PUSH1 0x2 DUP2 ADD SLOAD SWAP2 PUSH1 0x3 DUP3 ADD SLOAD SWAP1 PUSH1 0x6 DUP4 ADD SLOAD SWAP1 PUSH1 0x7 DUP5 ADD SLOAD SWAP1 PUSH1 0x8 DUP6 ADD SLOAD SWAP1 PUSH1 0x9 DUP7 ADD SLOAD SWAP3 PUSH1 0xA DUP8 ADD SLOAD SWAP5 PUSH1 0xB DUP9 ADD SLOAD SWAP7 PUSH1 0xC DUP10 ADD SLOAD SWAP9 PUSH1 0x5 ADD PUSH2 0x10D6 SWAP1 PUSH2 0x12D3 JUMP JUMPDEST SWAP10 PUSH1 0x40 MLOAD SWAP13 DUP14 SWAP13 DUP14 MSTORE PUSH1 0x20 DUP14 ADD MSTORE PUSH1 0x40 DUP13 ADD MSTORE PUSH1 0x60 DUP12 ADD MSTORE PUSH1 0x80 DUP11 ADD MSTORE PUSH1 0xFF DUP2 AND ISZERO ISZERO PUSH1 0xA0 DUP11 ADD MSTORE PUSH1 0x10 SHR AND PUSH1 0xC0 DUP9 ADD MSTORE PUSH1 0xE0 DUP8 ADD MSTORE PUSH2 0x100 DUP7 ADD MSTORE PUSH2 0x120 DUP6 ADD MSTORE PUSH2 0x140 DUP5 ADD MSTORE PUSH1 0xFF DUP2 AND ISZERO ISZERO PUSH2 0x160 DUP5 ADD MSTORE PUSH2 0x180 DUP4 ADD SWAP1 PUSH1 0x8 SHR PUSH1 0xFF AND SWAP1 PUSH2 0x1140 SWAP2 PUSH2 0x11F2 JUMP JUMPDEST PUSH2 0x1C0 DUP1 PUSH2 0x1A0 DUP5 ADD MSTORE DUP3 ADD PUSH2 0x123 SWAP2 PUSH2 0x11FF JUMP JUMPDEST CALLVALUE PUSH2 0x13E JUMPI PUSH1 0x40 CALLDATASIZE PUSH1 0x3 NOT ADD SLT PUSH2 0x13E JUMPI PUSH2 0x116E PUSH2 0x11AE JUMP JUMPDEST PUSH1 0x1 PUSH1 0x1 PUSH1 0xA0 SHL SUB AND PUSH1 0x0 SWAP1 DUP2 MSTORE PUSH1 0x3 PUSH1 0x20 MSTORE PUSH1 0x40 SWAP1 KECCAK256 DUP1 SLOAD PUSH1 0x24 CALLDATALOAD SWAP2 SWAP1 DUP3 LT ISZERO PUSH2 0x13E JUMPI PUSH1 0x20 SWAP2 PUSH2 0x119F SWAP2 PUSH2 0x11C4 JUMP JUMPDEST SWAP1 SLOAD SWAP1 PUSH1 0x3 SHL SHR PUSH1 0x40 MLOAD SWAP1 DUP2 MSTORE RETURN JUMPDEST PUSH1 0x4 CALLDATALOAD SWAP1 PUSH1 0x1 PUSH1 0x1 PUSH1 0xA0 SHL SUB DUP3 AND DUP3 SUB PUSH2 0x13E JUMPI JUMP JUMPDEST DUP1 SLOAD DUP3 LT ISZERO PUSH2 0x11DC JUMPI PUSH1 0x0 MSTORE PUSH1 0x20 PUSH1 0x0 KECCAK256 ADD SWAP1 PUSH1 0x0 SWAP1 JUMP JUMPDEST PUSH4 0x4E487B71 PUSH1 0xE0 SHL PUSH1 0x0 MSTORE PUSH1 0x32 PUSH1 0x4 MSTORE PUSH1 0x24 PUSH1 0x0 REVERT JUMPDEST SWAP1 PUSH1 0x6 DUP3 LT ISZERO PUSH2 0x571 JUMPI MSTORE JUMP JUMPDEST SWAP2 SWAP1 DUP3 MLOAD SWAP3 DUP4 DUP3 MSTORE PUSH1 0x0 JUMPDEST DUP5 DUP2 LT PUSH2 0x122B JUMPI POP POP DUP3 PUSH1 0x0 PUSH1 0x20 DUP1 SWAP5 SWAP6 DUP5 ADD ADD MSTORE PUSH1 0x1F DUP1 NOT SWAP2 ADD AND ADD ADD SWAP1 JUMP JUMPDEST PUSH1 0x20 DUP2 DUP4 ADD DUP2 ADD MLOAD DUP5 DUP4 ADD DUP3 ADD MSTORE ADD PUSH2 0x120A JUMP JUMPDEST PUSH1 0x60 DUP2 ADD SWAP1 DUP2 LT PUSH8 0xFFFFFFFFFFFFFFFF DUP3 GT OR PUSH2 0x434 JUMPI PUSH1 0x40 MSTORE JUMP JUMPDEST SWAP1 PUSH1 0x1F DUP1 NOT SWAP2 ADD AND DUP2 ADD SWAP1 DUP2 LT PUSH8 0xFFFFFFFFFFFFFFFF DUP3 GT OR PUSH2 0x434 JUMPI PUSH1 0x40 MSTORE JUMP JUMPDEST DUP1 SLOAD DUP3 LT ISZERO PUSH2 0x11DC JUMPI PUSH1 0x0 MSTORE PUSH1 0x3 PUSH1 0x20 PUSH1 0x0 KECCAK256 SWAP2 MUL ADD SWAP1 PUSH1 0x0 SWAP1 JUMP JUMPDEST SWAP1 PUSH1 0x1 DUP3 DUP2 SHR SWAP3 AND DUP1 ISZERO PUSH2 0x12C9 JUMPI JUMPDEST PUSH1 0x20 DUP4 LT EQ PUSH2 0x12B3 JUMPI JUMP JUMPDEST PUSH4 0x4E487B71 PUSH1 0xE0 SHL PUSH1 0x0 MSTORE PUSH1 0x22 PUSH1 0x4 MSTORE PUSH1 0x24 PUSH1 0x0 REVERT JUMPDEST SWAP2 PUSH1 0x7F AND SWAP2 PUSH2 0x12A8 JUMP JUMPDEST SWAP1 PUSH1 0x40 MLOAD SWAP2 DUP3 PUSH1 0x0 DUP3 SLOAD SWAP3 PUSH2 0x12E7 DUP5 PUSH2 0x1299 JUMP JUMPDEST SWAP1 DUP2 DUP5 MSTORE PUSH1 0x1 SWAP5 DUP6 DUP2 AND SWAP1 DUP2 PUSH1 0x0 EQ PUSH2 0x1356 JUMPI POP PUSH1 0x1 EQ PUSH2 0x1313 JUMPI JUMPDEST POP POP PUSH2 0x1311 SWAP3 POP SUB DUP4 PUSH2 0x125B JUMP JUMPDEST JUMP JUMPDEST SWAP1 SWAP4 SWAP2 POP PUSH1 0x0 MSTORE PUSH1 0x20 SWAP1 DUP2 PUSH1 0x0 KECCAK256 SWAP4 PUSH1 0x0 SWAP2 JUMPDEST DUP2 DUP4 LT PUSH2 0x133E JUMPI POP POP PUSH2 0x1311 SWAP4 POP DUP3 ADD ADD CODESIZE DUP1 PUSH2 0x1303 JUMP JUMPDEST DUP6 SLOAD DUP9 DUP5 ADD DUP6 ADD MSTORE SWAP5 DUP6 ADD SWAP5 DUP8 SWAP5 POP SWAP2 DUP4 ADD SWAP2 PUSH2 0x1326 JUMP JUMPDEST SWAP2 POP POP PUSH2 0x1311 SWAP5 POP PUSH1 0x20 SWAP3 POP PUSH1 0xFF NOT AND DUP3 DUP5 ADD MSTORE ISZERO ISZERO PUSH1 0x5 SHL DUP3 ADD ADD CODESIZE DUP1 PUSH2 0x1303 JUMP JUMPDEST PUSH1 0x20 SWAP1 DUP2 PUSH1 0x40 DUP2 DUP4 ADD SWAP3 DUP3 DUP2 MSTORE DUP6 MLOAD DUP1 SWAP5 MSTORE ADD SWAP4 ADD SWAP2 PUSH1 0x0 JUMPDEST DUP3 DUP2 LT PUSH2 0x13A0 JUMPI POP POP POP POP SWAP1 JUMP JUMPDEST DUP4 MLOAD DUP6 MSTORE SWAP4 DUP2 ADD SWAP4 SWAP3 DUP2 ADD SWAP3 PUSH1 0x1 ADD PUSH2 0x1392 JUMP JUMPDEST SWAP2 SWAP1 DUP3 ADD DUP1 SWAP3 GT PUSH2 0x916 JUMPI JUMP JUMPDEST DUP2 DUP2 MUL SWAP3 SWAP2 DUP2 ISZERO SWAP2 DUP5 DIV EQ OR ISZERO PUSH2 0x916 JUMPI JUMP JUMPDEST DUP1 SLOAD PUSH1 0x1 PUSH1 0x40 SHL DUP2 LT ISZERO PUSH2 0x434 JUMPI PUSH2 0x13F1 SWAP2 PUSH1 0x1 DUP3 ADD DUP2 SSTORE PUSH2 0x11C4 JUMP JUMPDEST DUP2 SWAP3 SWAP2 SLOAD SWAP1 PUSH1 0x3 SHL SWAP2 DUP3 SHL SWAP2 PUSH1 0x0 NOT SWAP1 SHL NOT AND OR SWAP1 SSTORE JUMP JUMPDEST ISZERO PUSH2 0x1410 JUMPI JUMP JUMPDEST PUSH1 0x40 MLOAD PUSH3 0x461BCD PUSH1 0xE5 SHL DUP2 MSTORE PUSH1 0x20 PUSH1 0x4 DUP3 ADD MSTORE PUSH1 0x13 PUSH1 0x24 DUP3 ADD MSTORE PUSH19 0x131BD85B88191BD95CC81B9BDD08195E1A5CDD PUSH1 0x6A SHL PUSH1 0x44 DUP3 ADD MSTORE PUSH1 0x64 SWAP1 REVERT JUMPDEST ISZERO PUSH2 0x1452 JUMPI JUMP JUMPDEST PUSH1 0x40 MLOAD PUSH3 0x461BCD PUSH1 0xE5 SHL DUP2 MSTORE PUSH1 0x20 PUSH1 0x4 DUP3 ADD MSTORE PUSH1 0x10 PUSH1 0x24 DUP3 ADD MSTORE PUSH16 0x2737BA103A3432903137B93937BBB2B9 PUSH1 0x81 SHL PUSH1 0x44 DUP3 ADD MSTORE PUSH1 0x64 SWAP1 REVERT JUMPDEST SWAP2 SWAP1 DUP3 SUB SWAP2 DUP3 GT PUSH2 0x916 JUMPI JUMP INVALID LOG2 PUSH5 0x6970667358 0x22 SLT KECCAK256 0xF9 0x5F 0xC7 0xB5 0xC7 0x4A AND 0xE7 DUP10 DUP6 SWAP12 0xC8 0x2D 0xB1 0xBA ADD 0x26 0xCA PUSH11 0x5F2ABE1B35FD0F65701562 0xE5 SELFDESTRUCT PUSH5 0x736F6C6343 STOP ADDMOD SGT STOP CALLER "},"methodIdentifiers":{"borrowerLoans(address,uint256)":"e3ed1902","cancelLoan(uint256)":"bdbfa3de","defaultLoan(uint256)":"67bf61c4","fundLoan(uint256)":"846b909a","getBorrowerLoans(address)":"eee8b7ff","getLenderLoans(address)":"eeeb0c17","getLoan(uint256)":"504006ca","getLoanPayments(uint256)":"ce473114","lenderLoans(address,uint256)":"3cdb72f1","loanCount()":"ce63094d","loanPayments(uint256,uint256)":"af3d3e98","loans(uint256)":"e1ec3c68","makePayment(uint256)":"5114cb52","requestLoan(uint256,uint256,uint256,string)":"84733294"}}}}}