{
  "_format": "hh-sol-artifact-1",
  "contractName": "LendingSystem",
  "sourceName": "contracts/LendingSystem.sol",
  "abi": [
    {
      "anonymous": false,
      "inputs": [
        {
          "indexed": true,
          "internalType": "uint256",
          "name": "loanId",
          "type": "uint256"
        }
      ],
      "name": "LoanCancelled",
      "type": "event"
    },
    {
      "anonymous": false,
      "inputs": [
        {
          "indexed": true,
          "internalType": "uint256",
          "name": "loanId",
          "type": "uint256"
        }
      ],
      "name": "LoanCompleted",
      "type": "event"
    },
    {
      "anonymous": false,
      "inputs": [
        {
          "indexed": true,
          "internalType": "uint256",
          "name": "loanId",
          "type": "uint256"
        }
      ],
      "name": "LoanDefaulted",
      "type": "event"
    },
    {
      "anonymous": false,
      "inputs": [
        {
          "indexed": true,
          "internalType": "uint256",
          "name": "loanId",
          "type": "uint256"
        },
        {
          "indexed": false,
          "internalType": "address",
          "name": "lender",
          "type": "address"
        }
      ],
      "name": "LoanFunded",
      "type": "event"
    },
    {
      "anonymous": false,
      "inputs": [
        {
          "indexed": true,
          "internalType": "uint256",
          "name": "loanId",
          "type": "uint256"
        },
        {
          "indexed": false,
          "internalType": "address",
          "name": "borrower",
          "type": "address"
        },
        {
          "indexed": false,
          "internalType": "uint256",
          "name": "amount",
          "type": "uint256"
        },
        {
          "indexed": false,
          "internalType": "uint256",
          "name": "interest",
          "type": "uint256"
        },
        {
          "indexed": false,
          "internalType": "uint256",
          "name": "duration",
          "type": "uint256"
        }
      ],
      "name": "LoanRequested",
      "type": "event"
    },
    {
      "anonymous": false,
      "inputs": [
        {
          "indexed": true,
          "internalType": "uint256",
          "name": "loanId",
          "type": "uint256"
        },
        {
          "indexed": false,
          "internalType": "uint256",
          "name": "amount",
          "type": "uint256"
        },
        {
          "indexed": false,
          "internalType": "uint256",
          "name": "remaining",
          "type": "uint256"
        }
      ],
      "name": "PaymentMade",
      "type": "event"
    },
    {
      "inputs": [
        {
          "internalType": "address",
          "name": "",
          "type": "address"
        },
        {
          "internalType": "uint256",
          "name": "",
          "type": "uint256"
        }
      ],
      "name": "borrowerLoans",
      "outputs": [
        {
          "internalType": "uint256",
          "name": "",
          "type": "uint256"
        }
      ],
      "stateMutability": "view",
      "type": "function"
    },
    {
      "inputs": [
        {
          "internalType": "uint256",
          "name": "_loanId",
          "type": "uint256"
        }
      ],
      "name": "cancelLoan",
      "outputs": [],
      "stateMutability": "nonpayable",
      "type": "function"
    },
    {
      "inputs": [
        {
          "internalType": "uint256",
          "name": "_loanId",
          "type": "uint256"
        }
      ],
      "name": "defaultLoan",
      "outputs": [],
      "stateMutability": "nonpayable",
      "type": "function"
    },
    {
      "inputs": [
        {
          "internalType": "uint256",
          "name": "_loanId",
          "type": "uint256"
        }
      ],
      "name": "fundLoan",
      "outputs": [],
      "stateMutability": "payable",
      "type": "function"
    },
    {
      "inputs": [
        {
          "internalType": "address",
          "name": "_borrower",
          "type": "address"
        }
      ],
      "name": "getBorrowerLoans",
      "outputs": [
        {
          "internalType": "uint256[]",
          "name": "",
          "type": "uint256[]"
        }
      ],
      "stateMutability": "view",
      "type": "function"
    },
    {
      "inputs": [
        {
          "internalType": "address",
          "name": "_lender",
          "type": "address"
        }
      ],
      "name": "getLenderLoans",
      "outputs": [
        {
          "internalType": "uint256[]",
          "name": "",
          "type": "uint256[]"
        }
      ],
      "stateMutability": "view",
      "type": "function"
    },
    {
      "inputs": [
        {
          "internalType": "uint256",
          "name": "_loanId",
          "type": "uint256"
        }
      ],
      "name": "getLoan",
      "outputs": [
        {
          "internalType": "address",
          "name": "borrower",
          "type": "address"
        },
        {
          "internalType": "uint256",
          "name": "amount",
          "type": "uint256"
        },
        {
          "internalType": "uint256",
          "name": "interest",
          "type": "uint256"
        },
        {
          "internalType": "uint256",
          "name": "duration",
          "type": "uint256"
        },
        {
          "internalType": "uint256",
          "name": "collateralAmount",
          "type": "uint256"
        },
        {
          "internalType": "bool",
          "name": "isActive",
          "type": "bool"
        },
        {
          "internalType": "address",
          "name": "lender",
          "type": "address"
        },
        {
          "internalType": "uint256",
          "name": "repaidAmount",
          "type": "uint256"
        },
        {
          "internalType": "uint256",
          "name": "nextPaymentDue",
          "type": "uint256"
        },
        {
          "internalType": "uint256",
          "name": "installmentAmount",
          "type": "uint256"
        },
        {
          "internalType": "uint256",
          "name": "totalAmountDue",
          "type": "uint256"
        },
        {
          "internalType": "bool",
          "name": "isDefaulted",
          "type": "bool"
        },
        {
          "internalType": "enum LendingSystem.LoanStatus",
          "name": "status",
          "type": "uint8"
        },
        {
          "internalType": "string",
          "name": "purpose",
          "type": "string"
        }
      ],
      "stateMutability": "view",
      "type": "function"
    },
    {
      "inputs": [
        {
          "internalType": "uint256",
          "name": "_loanId",
          "type": "uint256"
        }
      ],
      "name": "getLoanPayments",
      "outputs": [
        {
          "components": [
            {
              "internalType": "uint256",
              "name": "amount",
              "type": "uint256"
            },
            {
              "internalType": "uint256",
              "name": "timestamp",
              "type": "uint256"
            },
            {
              "internalType": "uint256",
              "name": "remainingBalance",
              "type": "uint256"
            }
          ],
          "internalType": "struct LendingSystem.Payment[]",
          "name": "",
          "type": "tuple[]"
        }
      ],
      "stateMutability": "view",
      "type": "function"
    },
    {
      "inputs": [
        {
          "internalType": "address",
          "name": "",
          "type": "address"
        },
        {
          "internalType": "uint256",
          "name": "",
          "type": "uint256"
        }
      ],
      "name": "lenderLoans",
      "outputs": [
        {
          "internalType": "uint256",
          "name": "",
          "type": "uint256"
        }
      ],
      "stateMutability": "view",
      "type": "function"
    },
    {
      "inputs": [],
      "name": "loanCount",
      "outputs": [
        {
          "internalType": "uint256",
          "name": "",
          "type": "uint256"
        }
      ],
      "stateMutability": "view",
      "type": "function"
    },
    {
      "inputs": [
        {
          "internalType": "uint256",
          "name": "",
          "type": "uint256"
        },
        {
          "internalType": "uint256",
          "name": "",
          "type": "uint256"
        }
      ],
      "name": "loanPayments",
      "outputs": [
        {
          "internalType": "uint256",
          "name": "amount",
          "type": "uint256"
        },
        {
          "internalType": "uint256",
          "name": "timestamp",
          "type": "uint256"
        },
        {
          "internalType": "uint256",
          "name": "remainingBalance",
          "type": "uint256"
        }
      ],
      "stateMutability": "view",
      "type": "function"
    },
    {
      "inputs": [
        {
          "internalType": "uint256",
          "name": "",
          "type": "uint256"
        }
      ],
      "name": "loans",
      "outputs": [
        {
          "internalType": "address",
          "name": "borrower",
          "type": "address"
        },
        {
          "internalType": "uint256",
          "name": "amount",
          "type": "uint256"
        },
        {
          "internalType": "uint256",
          "name": "interest",
          "type": "uint256"
        },
        {
          "internalType": "uint256",
          "name": "duration",
          "type": "uint256"
        },
        {
          "internalType": "uint256",
          "name": "deadline",
          "type": "uint256"
        },
        {
          "internalType": "string",
          "name": "purpose",
          "type": "string"
        },
        {
          "internalType": "uint256",
          "name": "collateralAmount",
          "type": "uint256"
        },
        {
          "internalType": "bool",
          "name": "isActive",
          "type": "bool"
        },
        {
          "internalType": "bool",
          "name": "isFunded",
          "type": "bool"
        },
        {
          "internalType": "address",
          "name": "lender",
          "type": "address"
        },
        {
          "internalType": "uint256",
          "name": "repaidAmount",
          "type": "uint256"
        },
        {
          "internalType": "uint256",
          "name": "nextPaymentDue",
          "type": "uint256"
        },
        {
          "internalType": "uint256",
          "name": "installmentAmount",
          "type": "uint256"
        },
        {
          "internalType": "uint256",
          "name": "totalAmountDue",
          "type": "uint256"
        },
        {
          "internalType": "bool",
          "name": "isDefaulted",
          "type": "bool"
        },
        {
          "internalType": "enum LendingSystem.LoanStatus",
          "name": "status",
          "type": "uint8"
        }
      ],
      "stateMutability": "view",
      "type": "function"
    },
    {
      "inputs": [
        {
          "internalType": "uint256",
          "name": "_loanId",
          "type": "uint256"
        }
      ],
      "name": "makePayment",
      "outputs": [],
      "stateMutability": "payable",
      "type": "function"
    },
    {
      "inputs": [
        {
          "internalType": "uint256",
          "name": "_amount",
          "type": "uint256"
        },
        {
          "internalType": "uint256",
          "name": "_interest",
          "type": "uint256"
        },
        {
          "internalType": "uint256",
          "name": "_duration",
          "type": "uint256"
        },
        {
          "internalType": "string",
          "name": "_purpose",
          "type": "string"
        }
      ],
      "name": "requestLoan",
      "outputs": [
        {
          "internalType": "uint256",
          "name": "",
          "type": "uint256"
        }
      ],
      "stateMutability": "payable",
      "type": "function"
    }
  ],
  "bytecode": "0x60808060405234610016576114cd908161001c8239f35b600080fdfe6080604052600436101561001257600080fd5b60003560e01c80633cdb72f114611155578063504006ca1461105f5780635114cb5214610d7957806367bf61c414610bb3578063846b909a146109f157806384733294146105e1578063af3d3e9814610587578063bdbfa3de1461044a578063ce4731141461033f578063ce63094d14610321578063e1ec3c6814610213578063e3ed1902146101bb578063eee8b7ff146101435763eeeb0c17146100b657600080fd5b3461013e5760208060031936011261013e576001600160a01b036100d86111ae565b1660005260038152604060002090604051908181845491828152019360005281600020916000905b82821061012757610123856101178189038261125b565b60405191829182611379565b0390f35b835486529485019460019384019390910190610100565b600080fd5b3461013e5760208060031936011261013e576001600160a01b036101656111ae565b1660005260028152604060002090604051908181845491828152019360005281600020916000905b8282106101a457610123856101178189038261125b565b83548652948501946001938401939091019061018d565b3461013e57604036600319011261013e576101d46111ae565b6001600160a01b031660009081526002602052604090208054602435919082101561013e57602091610205916111c4565b90546040519160031b1c8152f35b3461013e57602036600319011261013e5760043560005260006020526040600020600160a01b6001900380825416906001830154926002810154906003810154600482015460058301610265906112d3565b6006840154956007850154600886015492600987015494600a88015496600b89015498600c0154996040519d8e809e81526020015260408d015260608c015260808b01526102008060a08c01528a016102bd916111ff565b9760c08a015260ff8116151560e08a01528060081c60ff1615156101008a015260101c166101208801526101408701526101608601526101808501526101a084015260ff811615156101c08401526101e083019060081c60ff1690610123916111f2565b3461013e57600036600319011261013e576020600454604051908152f35b3461013e5760208060031936011261013e576004356000526001908181526040600020805467ffffffffffffffff811161043457838360405192610388828260051b018561125b565b8084528184018095600052826000206000915b8383106103f4575050505060405192818401908285525180915260408401949160005b8281106103cb5785870386f35b8351805188528281015183890152604090810151908801526060909601959281019284016103be565b9460038582999760409997995161040a8161123f565b8554815284860154838201526002860154604082015281520192019201919096949695939561039b565b634e487b7160e01b600052604160045260246000fd5b3461013e57602036600319011261013e5760043561046b6004548210611409565b80600052600060205260018060a01b0361048d8160406000205416331461144b565b816000526000602052604060002090600c82019081549160ff8360081c1660068110156105715761052c57600080856006829583956105008b9961ff0019161790556007830160ff19815416905582541691015490828215610523575bf115610517577fb71becc91961a6b43bcc5b3b630f3dce02c7fd444cf3738c4f188062b1caf5bc600080a2005b6040513d6000823e3d90fd5b506108fc6104ea565b60405162461bcd60e51b815260206004820152601d60248201527f43616e206f6e6c792063616e63656c2070656e64696e67206c6f616e730000006044820152606490fd5b634e487b7160e01b600052602160045260246000fd5b3461013e57604036600319011261013e5760243560043560005260016020526040600020805482101561013e576060916105c09161127d565b50805490600260018201549101549060405192835260208301526040820152f35b608036600319011261013e5760643567ffffffffffffffff80821161013e573660238301121561013e578160040135818111610434576040519261062f601f8301601f19166020018561125b565b818452366024838301011161013e57816000926024602093018387013784010152600435156109ac576044351561096757341561092c5760045460001981146109165760018101600455806000526000602052604060002091336bffffffffffffffffffffffff60a01b8454161783556004356001840155602435600284015560443560038401556106c3604435426113b4565b60048401558351908111610434576106de6005840154611299565b601f81116108cf575b506020601f82116001146108635781929394600092610858575b50508160011b916000199060031b1c19161760058301555b34600683015560078201805460ff19166001179055600c8201805461ff001916905561076563bbf81e0061075c6044356107576024356004356113c1565b6113c1565b046004356113b4565b9182600b82015562278d00806044350661080457604435049283156107ee57602093600a910491015533600052600282526107a48160406000206113d4565b807ff6cc19e46a340ab5888d736bfc79aef72ae92d12d7b76319d72b0abc170868e660806040513381526004358682015260243560408201526044356060820152a2604051908152f35b634e487b7160e01b600052601260045260246000fd5b60405162461bcd60e51b815260206004820152602660248201527f4475726174696f6e206d7573742062652061206d756c7469706c65206f66203360448201526530206461797360d01b6064820152608490fd5b015190508480610701565b601f198216906005850160005260206000209160005b8181106108b75750958360019596971061089e575b505050811b016005830155610719565b015160001960f88460031b161c1916905584808061088e565b9192602060018192868b015181550194019201610879565b600584016000526020600020601f830160051c81016020841061090f575b601f830160051c820181106109035750506106e7565b600081556001016108ed565b50806108ed565b634e487b7160e01b600052601160045260246000fd5b60405162461bcd60e51b815260206004820152601360248201527210dbdb1b185d195c985b081c995c5d5a5c9959606a1b6044820152606490fd5b60405162461bcd60e51b815260206004820152601f60248201527f4475726174696f6e206d7573742062652067726561746572207468616e2030006044820152606490fd5b60405162461bcd60e51b815260206004820152601d60248201527f416d6f756e74206d7573742062652067726561746572207468616e20300000006044820152606490fd5b60208060031936011261013e5760043590610a0f6004548310611409565b81600052600081526040600020600c81019081549060ff8260081c16600681101561057157610b7957600181019283543403610b415781546001600160a01b03939084163314610b0557600783018054610100600160b01b0319163360101b62010000600160b01b03161761010090811790915561ff00199091161790554262278d0081019081106109165760009384938385949360098695015533845260038852610abe89604086206113d4565b5416905490828215610afc575bf115610517577f15feab5d3eb17171632762cf769709a315dd15f487a556c0dfb8a259c8f186cc90604051338152a2005b506108fc610acb565b60405162461bcd60e51b815260048101879052601460248201527321b0b73737ba10333ab7321037bbb7103637b0b760611b6044820152606490fd5b60405162461bcd60e51b815260048101869052601060248201526f125b98dbdc9c9958dd08185b5bdd5b9d60821b6044820152606490fd5b60405162461bcd60e51b81526004810185905260126024820152714c6f616e206e6f7420617661696c61626c6560701b6044820152606490fd5b3461013e5760208060031936011261013e5760043590610bd66004548310611409565b600082815280825260409020600701546001600160a01b0391903360109190911c831603610d445782600052600081526040600020600c810180549260ff8460081c1660068110156105715760018114908115610d39575b5015610cff57600983015462093a80810180911161091657421115610cbb57856000808080898960068a8a610401600783019485549560ff198716905561ffff191617905501549183918315610cb1575b60101c1690f115610517577f0789b7097e8066538cfaa1132488b132e14ba5f0c938c8b7aaf8cf40356aab0b600080a2005b6108fc9250610c7f565b6064906040519062461bcd60e51b82526004820152601860248201527f477261636520706572696f64206e6f74206578706972656400000000000000006044820152fd5b6064906040519062461bcd60e51b825260048201526013602482015272496e76616c6964206c6f616e2073746174757360681b6044820152fd5b600291501487610c2e565b6064906040519062461bcd60e51b82526004820152600e60248201526d2737ba103a3432903632b73232b960911b6044820152fd5b60208060031936011261013e5760043590610d976004548310611409565b816000526000815260018060a01b0390610db98260406000205416331461144b565b8260005260008152604060002090600c820180549260ff8460081c1660068110156105715760018114908115611054575b501561101d573415610fd857600b81019081549260088201938454610e0f818361148a565b3411610f9557610e209034906113b4565b9081865562278d0042019283421161091657610e4d93600986015561020061ff0019809a1617905561148a565b60405190610e5a8261123f565b34825285820142815260408301918252896000526001875260406000208054600160401b81101561043457610e949160018201815561127d565b949094610f7f5760009460028695948695948695518455516001840155519101558960073492015460101c1682f11561051757549054857fcf358e925a8e033c6db877f18d10df6f21cd04ef165537bad5fc814eb23af9606040610ef8848661148a565b81519034825287820152a21015610f0b57005b600080939260068294838095898252526040842092610300600c8501918254161790556007830160ff19815416905582541691015490828215610f76575bf115610517577f02ca5489b37dd363d1302bac719e8ee40e540ffbe8c12253570fea63e11cad71600080a2005b506108fc610f49565b634e487b7160e01b600052600060045260246000fd5b6064876040519062461bcd60e51b825280600483015260248201527f5061796d656e7420657863656564732072656d61696e696e6720616d6f756e746044820152fd5b60405162461bcd60e51b815260048101849052601e60248201527f5061796d656e74206d7573742062652067726561746572207468616e203000006044820152606490fd5b60405162461bcd60e51b815260048101849052600f60248201526e4c6f616e206e6f742061637469766560881b6044820152606490fd5b600291501487610dea565b3461013e57602036600319011261013e5760043560005260006020526040600020600160a01b600190038082541690600183015492600281015491600382015490600683015490600784015490600885015490600986015492600a87015494600b88015496600c890154986005016110d6906112d3565b996040519c8d9c8d5260208d015260408c015260608b015260808a015260ff8116151560a08a015260101c1660c088015260e087015261010086015261012085015261014084015260ff8116151561016084015261018083019060081c60ff1690611140916111f2565b6101c0806101a08401528201610123916111ff565b3461013e57604036600319011261013e5761116e6111ae565b6001600160a01b031660009081526003602052604090208054602435919082101561013e5760209161119f916111c4565b90549060031b1c604051908152f35b600435906001600160a01b038216820361013e57565b80548210156111dc5760005260206000200190600090565b634e487b7160e01b600052603260045260246000fd5b9060068210156105715752565b919082519283825260005b84811061122b575050826000602080949584010152601f8019910116010190565b60208183018101518483018201520161120a565b6060810190811067ffffffffffffffff82111761043457604052565b90601f8019910116810190811067ffffffffffffffff82111761043457604052565b80548210156111dc576000526003602060002091020190600090565b90600182811c921680156112c9575b60208310146112b357565b634e487b7160e01b600052602260045260246000fd5b91607f16916112a8565b90604051918260008254926112e784611299565b9081845260019485811690816000146113565750600114611313575b50506113119250038361125b565b565b9093915060005260209081600020936000915b81831061133e57505061131193508201013880611303565b85548884018501529485019487945091830191611326565b91505061131194506020925060ff191682840152151560051b8201013880611303565b6020908160408183019282815285518094520193019160005b8281106113a0575050505090565b835185529381019392810192600101611392565b9190820180921161091657565b8181029291811591840414171561091657565b8054600160401b811015610434576113f1916001820181556111c4565b819291549060031b91821b91600019901b1916179055565b1561141057565b60405162461bcd60e51b8152602060048201526013602482015272131bd85b88191bd95cc81b9bdd08195e1a5cdd606a1b6044820152606490fd5b1561145257565b60405162461bcd60e51b815260206004820152601060248201526f2737ba103a3432903137b93937bbb2b960811b6044820152606490fd5b919082039182116109165756fea2646970667358221220f95fc7b5c74a16e789859bc82db1ba0126ca6a5f2abe1b35fd0f65701562e5ff64736f6c63430008130033",
  "linkReferences": {},
  "deployedLinkReferences": {}
}